{
  "_format": "hh-sol-artifact-1",
  "contractName": "PatientData",
  "sourceName": "contracts/PatientData.sol",
  "abi": [
    {
      "anonymous": false,
      "inputs": [
        {
          "indexed": true,
          "internalType": "address",
          "name": "user",
          "type": "address"
        },
        {
          "indexed": true,
          "internalType": "address",
          "name": "adr",
          "type": "address"
        }
      ],
      "name": "UserRegistered",
      "type": "event"
    },
    {
      "inputs": [],
      "name": "getUserData",
      "outputs": [],
      "stateMutability": "nonpayable",
      "type": "function"
    }
  ],
  "bytecode": "0x608060405234801561001057600080fd5b506115a2806100206000396000f3fe608060405234801561001057600080fd5b506004361061002b5760003560e01c806322e8c87d14610030575b600080fd5b61003861003a565b005b6000336040516100499061014c565b610053919061019a565b604051809103906000f08015801561006f573d6000803e3d6000fd5b509050806000803373ffffffffffffffffffffffffffffffffffffffff1673ffffffffffffffffffffffffffffffffffffffff16815260200190815260200160002060006101000a81548173ffffffffffffffffffffffffffffffffffffffff021916908373ffffffffffffffffffffffffffffffffffffffff1602179055508073ffffffffffffffffffffffffffffffffffffffff163373ffffffffffffffffffffffffffffffffffffffff167f2138b9314634f9fdd5e49bee3eaf17ca557b6637524d0db759711c3bfcd3d85060405160405180910390a350565b6113b7806101b683390190565b600073ffffffffffffffffffffffffffffffffffffffff82169050919050565b600061018482610159565b9050919050565b61019481610179565b82525050565b60006020820190506101af600083018461018b565b9291505056fe60806040523480156200001157600080fd5b50604051620013b7380380620013b78339818101604052810190620000379190620000e8565b806000806101000a81548173ffffffffffffffffffffffffffffffffffffffff021916908373ffffffffffffffffffffffffffffffffffffffff160217905550506200011a565b600080fd5b600073ffffffffffffffffffffffffffffffffffffffff82169050919050565b6000620000b08262000083565b9050919050565b620000c281620000a3565b8114620000ce57600080fd5b50565b600081519050620000e281620000b7565b92915050565b6000602082840312156200010157620001006200007e565b5b60006200011184828501620000d1565b91505092915050565b61128d806200012a6000396000f3fe608060405234801561001057600080fd5b50600436106100625760003560e01c806313bdfacd146100675780633bc5de3014610085578063528407e5146100a3578063999c3ca2146100bf578063ebe0435c146100db578063eda71d9f146100e5575b600080fd5b61006f610101565b60405161007c91906108d7565b60405180910390f35b61008d61012a565b60405161009a9190610a88565b60405180910390f35b6100bd60048036038101906100b89190610bf3565b61038f565b005b6100d960048036038101906100d49190610ccf565b61048f565b005b6100e3610621565b005b6100ff60048036038101906100fa9190610d0f565b6107b6565b005b60008060009054906101000a900473ffffffffffffffffffffffffffffffffffffffff16905090565b606060008054906101000a900473ffffffffffffffffffffffffffffffffffffffff1673ffffffffffffffffffffffffffffffffffffffff163373ffffffffffffffffffffffffffffffffffffffff1614806101cf5750600160003373ffffffffffffffffffffffffffffffffffffffff1673ffffffffffffffffffffffffffffffffffffffff16815260200190815260200160002060009054906101000a900460ff165b61020e576040517f08c379a000000000000000000000000000000000000000000000000000000000815260040161020590610dbf565b60405180910390fd5b6003805480602002602001604051908101604052809291908181526020016000905b82821015610386578382906000526020600020906002020160405180604001604052908160008201805461026390610e0e565b80601f016020809104026020016040519081016040528092919081815260200182805461028f90610e0e565b80156102dc5780601f106102b1576101008083540402835291602001916102dc565b820191906000526020600020905b8154815290600101906020018083116102bf57829003601f168201915b505050505081526020016001820180546102f590610e0e565b80601f016020809104026020016040519081016040528092919081815260200182805461032190610e0e565b801561036e5780601f106103435761010080835404028352916020019161036e565b820191906000526020600020905b81548152906001019060200180831161035157829003601f168201915b50505050508152505081526020019060010190610230565b50505050905090565b60008054906101000a900473ffffffffffffffffffffffffffffffffffffffff1673ffffffffffffffffffffffffffffffffffffffff163373ffffffffffffffffffffffffffffffffffffffff161461041d576040517f08c379a000000000000000000000000000000000000000000000000000000000815260040161041490610eb1565b60405180910390fd5b6003604051806040016040528083815260200184815250908060018154018082558091505060019003906000526020600020906002020160009091909190915060008201518160000190816104729190611087565b5060208201518160010190816104889190611087565b5050505050565b60008054906101000a900473ffffffffffffffffffffffffffffffffffffffff1673ffffffffffffffffffffffffffffffffffffffff163373ffffffffffffffffffffffffffffffffffffffff161461051d576040517f08c379a0000000000000000000000000000000000000000000000000000000008152600401610514906111cb565b60405180910390fd5b600260008373ffffffffffffffffffffffffffffffffffffffff1673ffffffffffffffffffffffffffffffffffffffff16815260200190815260200160002060009054906101000a900460ff16156105bf57600260008373ffffffffffffffffffffffffffffffffffffffff1673ffffffffffffffffffffffffffffffffffffffff16815260200190815260200160002060006101000a81549060ff02191690555b801561061d5760018060008473ffffffffffffffffffffffffffffffffffffffff1673ffffffffffffffffffffffffffffffffffffffff16815260200190815260200160002060006101000a81548160ff0219169083151502179055505b5050565b60008054906101000a900473ffffffffffffffffffffffffffffffffffffffff1673ffffffffffffffffffffffffffffffffffffffff163373ffffffffffffffffffffffffffffffffffffffff16141580156106c75750600160003373ffffffffffffffffffffffffffffffffffffffff1673ffffffffffffffffffffffffffffffffffffffff16815260200190815260200160002060009054906101000a900460ff16155b801561071d5750600260003373ffffffffffffffffffffffffffffffffffffffff1673ffffffffffffffffffffffffffffffffffffffff16815260200190815260200160002060009054906101000a900460ff16155b61075c576040517f08c379a000000000000000000000000000000000000000000000000000000000815260040161075390611237565b60405180910390fd5b6001600260003373ffffffffffffffffffffffffffffffffffffffff1673ffffffffffffffffffffffffffffffffffffffff16815260200190815260200160002060006101000a81548160ff021916908315150217905550565b60008054906101000a900473ffffffffffffffffffffffffffffffffffffffff1673ffffffffffffffffffffffffffffffffffffffff163373ffffffffffffffffffffffffffffffffffffffff1614610844576040517f08c379a000000000000000000000000000000000000000000000000000000000815260040161083b906111cb565b60405180910390fd5b600160008273ffffffffffffffffffffffffffffffffffffffff1673ffffffffffffffffffffffffffffffffffffffff16815260200190815260200160002060006101000a81549060ff021916905550565b600073ffffffffffffffffffffffffffffffffffffffff82169050919050565b60006108c182610896565b9050919050565b6108d1816108b6565b82525050565b60006020820190506108ec60008301846108c8565b92915050565b600081519050919050565b600082825260208201905092915050565b6000819050602082019050919050565b600081519050919050565b600082825260208201905092915050565b60005b8381101561095857808201518184015260208101905061093d565b60008484015250505050565b6000601f19601f8301169050919050565b60006109808261091e565b61098a8185610929565b935061099a81856020860161093a565b6109a381610964565b840191505092915050565b600060408301600083015184820360008601526109cb8282610975565b915050602083015184820360208601526109e58282610975565b9150508091505092915050565b60006109fe83836109ae565b905092915050565b6000602082019050919050565b6000610a1e826108f2565b610a2881856108fd565b935083602082028501610a3a8561090e565b8060005b85811015610a765784840389528151610a5785826109f2565b9450610a6283610a06565b925060208a01995050600181019050610a3e565b50829750879550505050505092915050565b60006020820190508181036000830152610aa28184610a13565b905092915050565b6000604051905090565b600080fd5b600080fd5b600080fd5b600080fd5b7f4e487b7100000000000000000000000000000000000000000000000000000000600052604160045260246000fd5b610b0082610964565b810181811067ffffffffffffffff82111715610b1f57610b1e610ac8565b5b80604052505050565b6000610b32610aaa565b9050610b3e8282610af7565b919050565b600067ffffffffffffffff821115610b5e57610b5d610ac8565b5b610b6782610964565b9050602081019050919050565b82818337600083830152505050565b6000610b96610b9184610b43565b610b28565b905082815260208101848484011115610bb257610bb1610ac3565b5b610bbd848285610b74565b509392505050565b600082601f830112610bda57610bd9610abe565b5b8135610bea848260208601610b83565b91505092915050565b60008060408385031215610c0a57610c09610ab4565b5b600083013567ffffffffffffffff811115610c2857610c27610ab9565b5b610c3485828601610bc5565b925050602083013567ffffffffffffffff811115610c5557610c54610ab9565b5b610c6185828601610bc5565b9150509250929050565b610c74816108b6565b8114610c7f57600080fd5b50565b600081359050610c9181610c6b565b92915050565b60008115159050919050565b610cac81610c97565b8114610cb757600080fd5b50565b600081359050610cc981610ca3565b92915050565b60008060408385031215610ce657610ce5610ab4565b5b6000610cf485828601610c82565b9250506020610d0585828601610cba565b9150509250929050565b600060208284031215610d2557610d24610ab4565b5b6000610d3384828501610c82565b91505092915050565b600082825260208201905092915050565b7f5573657220646f6573206e6f742068617665207265717569726564207065726d60008201527f697373696f6e7320746f20616363657373207468652064617461000000000000602082015250565b6000610da9603a83610d3c565b9150610db482610d4d565b604082019050919050565b60006020820190508181036000830152610dd881610d9c565b9050919050565b7f4e487b7100000000000000000000000000000000000000000000000000000000600052602260045260246000fd5b60006002820490506001821680610e2657607f821691505b602082108103610e3957610e38610ddf565b5b50919050565b7f596f7520646f6e27742068617665207265717569726564207065726d6973736960008201527f6f6e730000000000000000000000000000000000000000000000000000000000602082015250565b6000610e9b602383610d3c565b9150610ea682610e3f565b604082019050919050565b60006020820190508181036000830152610eca81610e8e565b9050919050565b60008190508160005260206000209050919050565b60006020601f8301049050919050565b600082821b905092915050565b600060088302610f337fffffffffffffffffffffffffffffffffffffffffffffffffffffffffffffffff82610ef6565b610f3d8683610ef6565b95508019841693508086168417925050509392505050565b6000819050919050565b6000819050919050565b6000610f84610f7f610f7a84610f55565b610f5f565b610f55565b9050919050565b6000819050919050565b610f9e83610f69565b610fb2610faa82610f8b565b848454610f03565b825550505050565b600090565b610fc7610fba565b610fd2818484610f95565b505050565b5b81811015610ff657610feb600082610fbf565b600181019050610fd8565b5050565b601f82111561103b5761100c81610ed1565b61101584610ee6565b81016020851015611024578190505b61103861103085610ee6565b830182610fd7565b50505b505050565b600082821c905092915050565b600061105e60001984600802611040565b1980831691505092915050565b6000611077838361104d565b9150826002028217905092915050565b6110908261091e565b67ffffffffffffffff8111156110a9576110a8610ac8565b5b6110b38254610e0e565b6110be828285610ffa565b600060209050601f8311600181146110f157600084156110df578287015190505b6110e9858261106b565b865550611151565b601f1984166110ff86610ed1565b60005b8281101561112757848901518255600182019150602085019450602081019050611102565b868310156111445784890151611140601f89168261104d565b8355505b6001600288020188555050505b505050505050565b7f596f7520646f6e27742068617665206163636573736962696c69747920746f2060008201527f6368616e6765207065726d697373696f6e730000000000000000000000000000602082015250565b60006111b5603283610d3c565b91506111c082611159565b604082019050919050565b600060208201905081810360008301526111e4816111a8565b9050919050565b7f416374696f6e2064656e69656400000000000000000000000000000000000000600082015250565b6000611221600d83610d3c565b915061122c826111eb565b602082019050919050565b6000602082019050818103600083015261125081611214565b905091905056fea2646970667358221220f71bb4fed06fac71795f5c7db4b208cef824e34199a0a1c3749b7a19e2ba613d64736f6c63430008180033a26469706673582212204471cba4e0474a4e90a02d48afe36f924cb8e5698e4f20d5bfe815a18fc3751c64736f6c63430008180033",
  "linkReferences": {},
  "deployedLinkReferences": {}
}