{
  "_format": "hh-sol-artifact-1",
  "contractName": "Patient",
  "sourceName": "contracts/PatientData.sol",
  "abi": [
    {
      "inputs": [
        {
          "internalType": "address",
          "name": "User",
          "type": "address"
        }
      ],
      "stateMutability": "nonpayable",
      "type": "constructor"
    },
    {
      "inputs": [
        {
          "internalType": "address",
          "name": "User",
          "type": "address"
        }
      ],
      "name": "RemovePermission",
      "outputs": [],
      "stateMutability": "nonpayable",
      "type": "function"
    },
    {
      "inputs": [
        {
          "internalType": "string",
          "name": "URI",
          "type": "string"
        },
        {
          "internalType": "string",
          "name": "name",
          "type": "string"
        }
      ],
      "name": "addData",
      "outputs": [],
      "stateMutability": "nonpayable",
      "type": "function"
    },
    {
      "inputs": [],
      "name": "getData",
      "outputs": [
        {
          "components": [
            {
              "internalType": "string",
              "name": "Name",
              "type": "string"
            },
            {
              "internalType": "string",
              "name": "FileURI",
              "type": "string"
            }
          ],
          "internalType": "struct Patient.File[]",
          "name": "",
          "type": "tuple[]"
        }
      ],
      "stateMutability": "view",
      "type": "function"
    },
    {
      "inputs": [],
      "name": "getPendingRequests",
      "outputs": [
        {
          "internalType": "address[]",
          "name": "",
          "type": "address[]"
        }
      ],
      "stateMutability": "view",
      "type": "function"
    },
    {
      "inputs": [],
      "name": "getPermits",
      "outputs": [
        {
          "internalType": "address[]",
          "name": "",
          "type": "address[]"
        }
      ],
      "stateMutability": "view",
      "type": "function"
    },
    {
      "inputs": [
        {
          "internalType": "address",
          "name": "User",
          "type": "address"
        },
        {
          "internalType": "bool",
          "name": "data",
          "type": "bool"
        }
      ],
      "name": "handlePermission",
      "outputs": [],
      "stateMutability": "nonpayable",
      "type": "function"
    },
    {
      "inputs": [],
      "name": "print",
      "outputs": [
        {
          "internalType": "address",
          "name": "",
          "type": "address"
        }
      ],
      "stateMutability": "view",
      "type": "function"
    },
    {
      "inputs": [],
      "name": "requestPermission",
      "outputs": [],
      "stateMutability": "nonpayable",
      "type": "function"
    }
  ],
  "bytecode": "0x60806040523480156200001157600080fd5b5060405162001df838038062001df88339818101604052810190620000379190620000e8565b806000806101000a81548173ffffffffffffffffffffffffffffffffffffffff021916908373ffffffffffffffffffffffffffffffffffffffff160217905550506200011a565b600080fd5b600073ffffffffffffffffffffffffffffffffffffffff82169050919050565b6000620000b08262000083565b9050919050565b620000c281620000a3565b8114620000ce57600080fd5b50565b600081519050620000e281620000b7565b92915050565b6000602082840312156200010157620001006200007e565b5b60006200011184828501620000d1565b91505092915050565b611cce806200012a6000396000f3fe608060405234801561001057600080fd5b50600436106100885760003560e01c806380a1f7121161005b57806380a1f71214610103578063999c3ca214610121578063ebe0435c1461013d578063eda71d9f1461014757610088565b806313bdfacd1461008d5780633bc5de30146100ab578063528407e5146100c957806352b08571146100e5575b600080fd5b610095610163565b6040516100a291906110e5565b60405180910390f35b6100b361018c565b6040516100c09190611296565b60405180910390f35b6100e360048036038101906100de9190611401565b6103e7565b005b6100ed6104e7565b6040516100fa9190611537565b60405180910390f35b61010b610603565b6040516101189190611537565b60405180910390f35b61013b600480360381019061013691906115bd565b61071f565b005b610145610b77565b005b610161600480360381019061015c91906115fd565b610d4a565b005b60008060009054906101000a900473ffffffffffffffffffffffffffffffffffffffff16905090565b606060008054906101000a900473ffffffffffffffffffffffffffffffffffffffff1673ffffffffffffffffffffffffffffffffffffffff163373ffffffffffffffffffffffffffffffffffffffff16148061022757506000600160003373ffffffffffffffffffffffffffffffffffffffff1673ffffffffffffffffffffffffffffffffffffffff16815260200190815260200160002054115b610266576040517f08c379a000000000000000000000000000000000000000000000000000000000815260040161025d906116ad565b60405180910390fd5b6005805480602002602001604051908101604052809291908181526020016000905b828210156103de57838290600052602060002090600202016040518060400160405290816000820180546102bb906116fc565b80601f01602080910402602001604051908101604052809291908181526020018280546102e7906116fc565b80156103345780601f1061030957610100808354040283529160200191610334565b820191906000526020600020905b81548152906001019060200180831161031757829003601f168201915b5050505050815260200160018201805461034d906116fc565b80601f0160208091040260200160405190810160405280929190818152602001828054610379906116fc565b80156103c65780601f1061039b576101008083540402835291602001916103c6565b820191906000526020600020905b8154815290600101906020018083116103a957829003601f168201915b50505050508152505081526020019060010190610288565b50505050905090565b60008054906101000a900473ffffffffffffffffffffffffffffffffffffffff1673ffffffffffffffffffffffffffffffffffffffff163373ffffffffffffffffffffffffffffffffffffffff1614610475576040517f08c379a000000000000000000000000000000000000000000000000000000000815260040161046c9061179f565b60405180910390fd5b6005604051806040016040528083815260200184815250908060018154018082558091505060019003906000526020600020906002020160009091909190915060008201518160000190816104ca9190611975565b5060208201518160010190816104e09190611975565b5050505050565b606060008054906101000a900473ffffffffffffffffffffffffffffffffffffffff1673ffffffffffffffffffffffffffffffffffffffff163373ffffffffffffffffffffffffffffffffffffffff1614610577576040517f08c379a000000000000000000000000000000000000000000000000000000000815260040161056e90611ab9565b60405180910390fd5b60038054806020026020016040519081016040528092919081815260200182805480156105f957602002820191906000526020600020905b8160009054906101000a900473ffffffffffffffffffffffffffffffffffffffff1673ffffffffffffffffffffffffffffffffffffffff16815260200190600101908083116105af575b5050505050905090565b606060008054906101000a900473ffffffffffffffffffffffffffffffffffffffff1673ffffffffffffffffffffffffffffffffffffffff163373ffffffffffffffffffffffffffffffffffffffff1614610693576040517f08c379a000000000000000000000000000000000000000000000000000000000815260040161068a90611ab9565b60405180910390fd5b600480548060200260200160405190810160405280929190818152602001828054801561071557602002820191906000526020600020905b8160009054906101000a900473ffffffffffffffffffffffffffffffffffffffff1673ffffffffffffffffffffffffffffffffffffffff16815260200190600101908083116106cb575b5050505050905090565b60008054906101000a900473ffffffffffffffffffffffffffffffffffffffff1673ffffffffffffffffffffffffffffffffffffffff163373ffffffffffffffffffffffffffffffffffffffff16146107ad576040517f08c379a00000000000000000000000000000000000000000000000000000000081526004016107a490611b4b565b60405180910390fd5b6000600260008473ffffffffffffffffffffffffffffffffffffffff1673ffffffffffffffffffffffffffffffffffffffff168152602001908152602001600020541115610ac05760006001600260008573ffffffffffffffffffffffffffffffffffffffff1673ffffffffffffffffffffffffffffffffffffffff168152602001908152602001600020546108439190611b9a565b905060006004805490509050816002600060046001856108639190611b9a565b8154811061087457610873611bce565b5b9060005260206000200160009054906101000a900473ffffffffffffffffffffffffffffffffffffffff1673ffffffffffffffffffffffffffffffffffffffff1673ffffffffffffffffffffffffffffffffffffffff1681526020019081526020016000208190555060046001826108ec9190611b9a565b815481106108fd576108fc611bce565b5b9060005260206000200160009054906101000a900473ffffffffffffffffffffffffffffffffffffffff166004838154811061093c5761093b611bce565b5b9060005260206000200160009054906101000a900473ffffffffffffffffffffffffffffffffffffffff166004848154811061097b5761097a611bce565b5b90600052602060002001600060046001866109969190611b9a565b815481106109a7576109a6611bce565b5b9060005260206000200160008491906101000a81548173ffffffffffffffffffffffffffffffffffffffff021916908373ffffffffffffffffffffffffffffffffffffffff1602179055508391906101000a81548173ffffffffffffffffffffffffffffffffffffffff021916908373ffffffffffffffffffffffffffffffffffffffff1602179055505050600260008573ffffffffffffffffffffffffffffffffffffffff1673ffffffffffffffffffffffffffffffffffffffff168152602001908152602001600020600090556004805480610a8857610a87611bfd565b5b6001900381819060005260206000200160006101000a81549073ffffffffffffffffffffffffffffffffffffffff0219169055905550505b8015610b73576003829080600181540180825580915050600190039060005260206000200160009091909190916101000a81548173ffffffffffffffffffffffffffffffffffffffff021916908373ffffffffffffffffffffffffffffffffffffffff160217905550600380549050600160008473ffffffffffffffffffffffffffffffffffffffff1673ffffffffffffffffffffffffffffffffffffffff168152602001908152602001600020819055505b5050565b60008054906101000a900473ffffffffffffffffffffffffffffffffffffffff1673ffffffffffffffffffffffffffffffffffffffff163373ffffffffffffffffffffffffffffffffffffffff1614158015610c1257506000600160003373ffffffffffffffffffffffffffffffffffffffff1673ffffffffffffffffffffffffffffffffffffffff16815260200190815260200160002054145b8015610c5d57506000600260003373ffffffffffffffffffffffffffffffffffffffff1673ffffffffffffffffffffffffffffffffffffffff16815260200190815260200160002054145b610c9c576040517f08c379a0000000000000000000000000000000000000000000000000000000008152600401610c9390611c78565b60405180910390fd5b6004339080600181540180825580915050600190039060005260206000200160009091909190916101000a81548173ffffffffffffffffffffffffffffffffffffffff021916908373ffffffffffffffffffffffffffffffffffffffff160217905550600480549050600260003373ffffffffffffffffffffffffffffffffffffffff1673ffffffffffffffffffffffffffffffffffffffff16815260200190815260200160002081905550565b60008054906101000a900473ffffffffffffffffffffffffffffffffffffffff1673ffffffffffffffffffffffffffffffffffffffff163373ffffffffffffffffffffffffffffffffffffffff1614610dd8576040517f08c379a0000000000000000000000000000000000000000000000000000000008152600401610dcf90611b4b565b60405180910390fd5b600060018060008473ffffffffffffffffffffffffffffffffffffffff1673ffffffffffffffffffffffffffffffffffffffff16815260200190815260200160002054610e259190611b9a565b90506000600380549050905081600160006003600185610e459190611b9a565b81548110610e5657610e55611bce565b5b9060005260206000200160009054906101000a900473ffffffffffffffffffffffffffffffffffffffff1673ffffffffffffffffffffffffffffffffffffffff1673ffffffffffffffffffffffffffffffffffffffff168152602001908152602001600020819055506003600182610ece9190611b9a565b81548110610edf57610ede611bce565b5b9060005260206000200160009054906101000a900473ffffffffffffffffffffffffffffffffffffffff1660038381548110610f1e57610f1d611bce565b5b9060005260206000200160009054906101000a900473ffffffffffffffffffffffffffffffffffffffff1660038481548110610f5d57610f5c611bce565b5b9060005260206000200160006003600186610f789190611b9a565b81548110610f8957610f88611bce565b5b9060005260206000200160008491906101000a81548173ffffffffffffffffffffffffffffffffffffffff021916908373ffffffffffffffffffffffffffffffffffffffff1602179055508391906101000a81548173ffffffffffffffffffffffffffffffffffffffff021916908373ffffffffffffffffffffffffffffffffffffffff1602179055505050600160008473ffffffffffffffffffffffffffffffffffffffff1673ffffffffffffffffffffffffffffffffffffffff16815260200190815260200160002060009055600380548061106a57611069611bfd565b5b6001900381819060005260206000200160006101000a81549073ffffffffffffffffffffffffffffffffffffffff02191690559055505050565b600073ffffffffffffffffffffffffffffffffffffffff82169050919050565b60006110cf826110a4565b9050919050565b6110df816110c4565b82525050565b60006020820190506110fa60008301846110d6565b92915050565b600081519050919050565b600082825260208201905092915050565b6000819050602082019050919050565b600081519050919050565b600082825260208201905092915050565b60005b8381101561116657808201518184015260208101905061114b565b60008484015250505050565b6000601f19601f8301169050919050565b600061118e8261112c565b6111988185611137565b93506111a8818560208601611148565b6111b181611172565b840191505092915050565b600060408301600083015184820360008601526111d98282611183565b915050602083015184820360208601526111f38282611183565b9150508091505092915050565b600061120c83836111bc565b905092915050565b6000602082019050919050565b600061122c82611100565b611236818561110b565b9350836020820285016112488561111c565b8060005b8581101561128457848403895281516112658582611200565b945061127083611214565b925060208a0199505060018101905061124c565b50829750879550505050505092915050565b600060208201905081810360008301526112b08184611221565b905092915050565b6000604051905090565b600080fd5b600080fd5b600080fd5b600080fd5b7f4e487b7100000000000000000000000000000000000000000000000000000000600052604160045260246000fd5b61130e82611172565b810181811067ffffffffffffffff8211171561132d5761132c6112d6565b5b80604052505050565b60006113406112b8565b905061134c8282611305565b919050565b600067ffffffffffffffff82111561136c5761136b6112d6565b5b61137582611172565b9050602081019050919050565b82818337600083830152505050565b60006113a461139f84611351565b611336565b9050828152602081018484840111156113c0576113bf6112d1565b5b6113cb848285611382565b509392505050565b600082601f8301126113e8576113e76112cc565b5b81356113f8848260208601611391565b91505092915050565b60008060408385031215611418576114176112c2565b5b600083013567ffffffffffffffff811115611436576114356112c7565b5b611442858286016113d3565b925050602083013567ffffffffffffffff811115611463576114626112c7565b5b61146f858286016113d3565b9150509250929050565b600081519050919050565b600082825260208201905092915050565b6000819050602082019050919050565b6114ae816110c4565b82525050565b60006114c083836114a5565b60208301905092915050565b6000602082019050919050565b60006114e482611479565b6114ee8185611484565b93506114f983611495565b8060005b8381101561152a57815161151188826114b4565b975061151c836114cc565b9250506001810190506114fd565b5085935050505092915050565b6000602082019050818103600083015261155181846114d9565b905092915050565b611562816110c4565b811461156d57600080fd5b50565b60008135905061157f81611559565b92915050565b60008115159050919050565b61159a81611585565b81146115a557600080fd5b50565b6000813590506115b781611591565b92915050565b600080604083850312156115d4576115d36112c2565b5b60006115e285828601611570565b92505060206115f3858286016115a8565b9150509250929050565b600060208284031215611613576116126112c2565b5b600061162184828501611570565b91505092915050565b600082825260208201905092915050565b7f5573657220646f6573206e6f742068617665207265717569726564207065726d60008201527f697373696f6e7320746f20616363657373207468652064617461000000000000602082015250565b6000611697603a8361162a565b91506116a28261163b565b604082019050919050565b600060208201905081810360008301526116c68161168a565b9050919050565b7f4e487b7100000000000000000000000000000000000000000000000000000000600052602260045260246000fd5b6000600282049050600182168061171457607f821691505b602082108103611727576117266116cd565b5b50919050565b7f596f7520646f6e27742068617665207265717569726564207065726d6973736960008201527f6f6e730000000000000000000000000000000000000000000000000000000000602082015250565b600061178960238361162a565b91506117948261172d565b604082019050919050565b600060208201905081810360008301526117b88161177c565b9050919050565b60008190508160005260206000209050919050565b60006020601f8301049050919050565b600082821b905092915050565b6000600883026118217fffffffffffffffffffffffffffffffffffffffffffffffffffffffffffffffff826117e4565b61182b86836117e4565b95508019841693508086168417925050509392505050565b6000819050919050565b6000819050919050565b600061187261186d61186884611843565b61184d565b611843565b9050919050565b6000819050919050565b61188c83611857565b6118a061189882611879565b8484546117f1565b825550505050565b600090565b6118b56118a8565b6118c0818484611883565b505050565b5b818110156118e4576118d96000826118ad565b6001810190506118c6565b5050565b601f821115611929576118fa816117bf565b611903846117d4565b81016020851015611912578190505b61192661191e856117d4565b8301826118c5565b50505b505050565b600082821c905092915050565b600061194c6000198460080261192e565b1980831691505092915050565b6000611965838361193b565b9150826002028217905092915050565b61197e8261112c565b67ffffffffffffffff811115611997576119966112d6565b5b6119a182546116fc565b6119ac8282856118e8565b600060209050601f8311600181146119df57600084156119cd578287015190505b6119d78582611959565b865550611a3f565b601f1984166119ed866117bf565b60005b82811015611a15578489015182556001820191506020850194506020810190506119f0565b86831015611a325784890151611a2e601f89168261193b565b8355505b6001600288020188555050505b505050505050565b7f596f7520646f6e27742068617665207265717569726564207065726d6973736960008201527f6f6e7320746f2061636365737320646174610000000000000000000000000000602082015250565b6000611aa360328361162a565b9150611aae82611a47565b604082019050919050565b60006020820190508181036000830152611ad281611a96565b9050919050565b7f596f7520646f6e27742068617665206163636573736962696c69747920746f2060008201527f6368616e6765207065726d697373696f6e730000000000000000000000000000602082015250565b6000611b3560328361162a565b9150611b4082611ad9565b604082019050919050565b60006020820190508181036000830152611b6481611b28565b9050919050565b7f4e487b7100000000000000000000000000000000000000000000000000000000600052601160045260246000fd5b6000611ba582611843565b9150611bb083611843565b9250828203905081811115611bc857611bc7611b6b565b5b92915050565b7f4e487b7100000000000000000000000000000000000000000000000000000000600052603260045260246000fd5b7f4e487b7100000000000000000000000000000000000000000000000000000000600052603160045260246000fd5b7f416374696f6e2064656e69656400000000000000000000000000000000000000600082015250565b6000611c62600d8361162a565b9150611c6d82611c2c565b602082019050919050565b60006020820190508181036000830152611c9181611c55565b905091905056fea264697066735822122015d03148fb3e3e83752303d8703ee45be16d92eeeaee533eb85bdabcf757a1dd64736f6c63430008180033",
  "linkReferences": {},
  "deployedLinkReferences": {}
}